{
  "_format": "hh-sol-artifact-1",
  "contractName": "Blog",
  "sourceName": "contracts/Blog.sol",
  "abi": [
    {
      "anonymous": false,
      "inputs": [
        {
          "indexed": false,
          "internalType": "string",
          "name": "title",
          "type": "string"
        },
        {
          "indexed": false,
          "internalType": "string",
          "name": "contentHash",
          "type": "string"
        },
        {
          "indexed": false,
          "internalType": "address",
          "name": "author",
          "type": "address"
        },
        {
          "indexed": false,
          "internalType": "uint256",
          "name": "timestamp",
          "type": "uint256"
        }
      ],
      "name": "PostCreated",
      "type": "event"
    },
    {
      "inputs": [
        {
          "internalType": "string",
          "name": "_title",
          "type": "string"
        },
        {
          "internalType": "string",
          "name": "_contentHash",
          "type": "string"
        }
      ],
      "name": "createPost",
      "outputs": [],
      "stateMutability": "nonpayable",
      "type": "function"
    },
    {
      "inputs": [],
      "name": "getPosts",
      "outputs": [
        {
          "components": [
            {
              "internalType": "string",
              "name": "title",
              "type": "string"
            },
            {
              "internalType": "string",
              "name": "contentHash",
              "type": "string"
            },
            {
              "internalType": "address",
              "name": "author",
              "type": "address"
            },
            {
              "internalType": "uint256",
              "name": "timestamp",
              "type": "uint256"
            }
          ],
          "internalType": "struct Blog.Post[]",
          "name": "",
          "type": "tuple[]"
        }
      ],
      "stateMutability": "view",
      "type": "function"
    },
    {
      "inputs": [
        {
          "internalType": "uint256",
          "name": "",
          "type": "uint256"
        }
      ],
      "name": "posts",
      "outputs": [
        {
          "internalType": "string",
          "name": "title",
          "type": "string"
        },
        {
          "internalType": "string",
          "name": "contentHash",
          "type": "string"
        },
        {
          "internalType": "address",
          "name": "author",
          "type": "address"
        },
        {
          "internalType": "uint256",
          "name": "timestamp",
          "type": "uint256"
        }
      ],
      "stateMutability": "view",
      "type": "function"
    }
  ],
  "bytecode": "0x608060405234801561001057600080fd5b50610b34806100206000396000f3fe608060405234801561001057600080fd5b50600436106100415760003560e01c80630b1e7f8314610046578063392338f51461007957806341f3004a14610095575b600080fd5b610060600480360381019061005b91906106c2565b6100b3565b60405161007094939291906108ae565b60405180910390f35b610093600480360381019061008e9190610656565b610223565b005b61009d610353565b6040516100aa919061088c565b60405180910390f35b600081815481106100c357600080fd5b90600052602060002090600402016000915090508060000180546100e690610a46565b80601f016020809104026020016040519081016040528092919081815260200182805461011290610a46565b801561015f5780601f106101345761010080835404028352916020019161015f565b820191906000526020600020905b81548152906001019060200180831161014257829003601f168201915b50505050509080600101805461017490610a46565b80601f01602080910402602001604051908101604052809291908181526020018280546101a090610a46565b80156101ed5780601f106101c2576101008083540402835291602001916101ed565b820191906000526020600020905b8154815290600101906020018083116101d057829003601f168201915b5050505050908060020160009054906101000a900473ffffffffffffffffffffffffffffffffffffffff16908060030154905084565b600060405180608001604052808481526020018381526020013373ffffffffffffffffffffffffffffffffffffffff16815260200142815250908060018154018082558091505060019003906000526020600020906004020160009091909190915060008201518160000190805190602001906102a1929190610536565b5060208201518160010190805190602001906102be929190610536565b5060408201518160020160006101000a81548173ffffffffffffffffffffffffffffffffffffffff021916908373ffffffffffffffffffffffffffffffffffffffff1602179055506060820151816003015550507fa1bd23ff426660f19e57cd63fd8b7ad6ef9333e51bb2fd5ed1cb6b358b7132ab8282334260405161034794939291906108ae565b60405180910390a15050565b60606000805480602002602001604051908101604052809291908181526020016000905b8282101561052d57838290600052602060002090600402016040518060800160405290816000820180546103aa90610a46565b80601f01602080910402602001604051908101604052809291908181526020018280546103d690610a46565b80156104235780601f106103f857610100808354040283529160200191610423565b820191906000526020600020905b81548152906001019060200180831161040657829003601f168201915b5050505050815260200160018201805461043c90610a46565b80601f016020809104026020016040519081016040528092919081815260200182805461046890610a46565b80156104b55780601f1061048a576101008083540402835291602001916104b5565b820191906000526020600020905b81548152906001019060200180831161049857829003601f168201915b505050505081526020016002820160009054906101000a900473ffffffffffffffffffffffffffffffffffffffff1673ffffffffffffffffffffffffffffffffffffffff1673ffffffffffffffffffffffffffffffffffffffff16815260200160038201548152505081526020019060010190610377565b50505050905090565b82805461054290610a46565b90600052602060002090601f01602090048101928261056457600085556105ab565b82601f1061057d57805160ff19168380011785556105ab565b828001600101855582156105ab579182015b828111156105aa57825182559160200191906001019061058f565b5b5090506105b891906105bc565b5090565b5b808211156105d55760008160009055506001016105bd565b5090565b60006105ec6105e784610932565b610901565b90508281526020810184848401111561060457600080fd5b61060f848285610a04565b509392505050565b600082601f83011261062857600080fd5b81356106388482602086016105d9565b91505092915050565b60008135905061065081610ae7565b92915050565b6000806040838503121561066957600080fd5b600083013567ffffffffffffffff81111561068357600080fd5b61068f85828601610617565b925050602083013567ffffffffffffffff8111156106ac57600080fd5b6106b885828601610617565b9150509250929050565b6000602082840312156106d457600080fd5b60006106e284828501610641565b91505092915050565b60006106f78383610804565b905092915050565b610708816109c8565b82525050565b610717816109c8565b82525050565b600061072882610972565b6107328185610995565b93508360208202850161074485610962565b8060005b85811015610780578484038952815161076185826106eb565b945061076c83610988565b925060208a01995050600181019050610748565b50829750879550505050505092915050565b600061079d8261097d565b6107a781856109a6565b93506107b7818560208601610a13565b6107c081610ad6565b840191505092915050565b60006107d68261097d565b6107e081856109b7565b93506107f0818560208601610a13565b6107f981610ad6565b840191505092915050565b600060808301600083015184820360008601526108218282610792565b9150506020830151848203602086015261083b8282610792565b915050604083015161085060408601826106ff565b506060830151610863606086018261086e565b508091505092915050565b610877816109fa565b82525050565b610886816109fa565b82525050565b600060208201905081810360008301526108a6818461071d565b905092915050565b600060808201905081810360008301526108c881876107cb565b905081810360208301526108dc81866107cb565b90506108eb604083018561070e565b6108f8606083018461087d565b95945050505050565b6000604051905081810181811067ffffffffffffffff8211171561092857610927610aa7565b5b8060405250919050565b600067ffffffffffffffff82111561094d5761094c610aa7565b5b601f19601f8301169050602081019050919050565b6000819050602082019050919050565b600081519050919050565b600081519050919050565b6000602082019050919050565b600082825260208201905092915050565b600082825260208201905092915050565b600082825260208201905092915050565b60006109d3826109da565b9050919050565b600073ffffffffffffffffffffffffffffffffffffffff82169050919050565b6000819050919050565b82818337600083830152505050565b60005b83811015610a31578082015181840152602081019050610a16565b83811115610a40576000848401525b50505050565b60006002820490506001821680610a5e57607f821691505b60208210811415610a7257610a71610a78565b5b50919050565b7f4e487b7100000000000000000000000000000000000000000000000000000000600052602260045260246000fd5b7f4e487b7100000000000000000000000000000000000000000000000000000000600052604160045260246000fd5b6000601f19601f8301169050919050565b610af0816109fa565b8114610afb57600080fd5b5056fea26469706673582212202d92a848a0141c1fd3200b9d098f9d48df55030b7fdc3fd40503f32e3bd04f2264736f6c63430008000033",
  "linkReferences": {},
  "deployedLinkReferences": {}
}